:020000040800F2
:10000000300F0020450100084D0100084F01000895
:1000100051010008530100085501000800000000CC
:100020000000000000000000000000005701000870
:1000300059010008000000005B0100081D0B0008CA
:10004000891100085F0100085F010008D508000859
:100050005F0100085F010008010200085F0100085D
:100060005F0100085F0100085F0100085F010008F0
:100070005F0100085F0100085F0100085F010008E0
:100080005F0100085F0100085F0100085F010008D0
:100090005F0100085F0100085F0100085F010008C0
:1000A0005F010008710C00085F0100085F01000893
:1000B000710D0008710E0008810F00085F01000833
:1000C0005F0100085F0100085F0100085F01000890
:1000D0005F010008BD0F0008C110000821110008D1
:1000E0005F0100085F0100085F0100085F01000870
:1000F0005F0100085F0100085F0100085F01000860
:100100005F0100085F0100085F0100085F0100084F
:100110005F0100085F0100085F0100085F0100083F
:100120005F0100085F0100085F0100085F0100082F
:10013000DFF80CD000F052F800480047A514000882
:10014000300F00200648804706480047FEE7FEE7DC
:10015000FEE7FEE7FEE7FEE7FEE7FEE7FEE7FEE777
:100160004D0B00083101000840EA01039B0703D052
:1001700009E008C9121F08C0042AFAD203E011F8E6
:10018000013B00F8013B521EF9D27047D2B201E0A8
:1001900000F8012B491EFBD270470022F6E710B58C
:1001A00013460A4604461946FFF7F0FF204610BDE5
:1001B00030B50B46014600202022012409E021FA37
:1001C00002F59D4205D303FA02F5491B04FA02F534
:1001D0002844151EA2F10102F1DC30BD064C074D8A
:1001E00006E0E06840F0010394E807009847103407
:1001F000AC42F6D3FFF7A0FFE0230008002400087C
:1002000010B5142001F0E2F83C480078002861D1D4
:100210003B48006800285DD022213A48FFF7BDFF27
:1002200022213948FFF7B9FF3548A030006808B9E6
:10023000012000E000203249A03108603348D0F8A6
:10024000880108B9012000E00020314908603148E8
:10025000007890B94FF48C622F493048FFF784FF43
:1002600000202F4908702F4908702F49087029482D
:100270000078401C2749087029E0264800780128AA
:1002800012D14FF48C6229492448FFF76DFF0020FA
:100290002349087023490870234908701D480078D5
:1002A000401C1C49087012E01A48007802280ED140
:1002B0004FF48C621E491948FFF756FF0020184979
:1002C0000870184908701849087012490870012010
:1002D0000A49087009480078012805D108480068D3
:1002E00010B9002005490870002012490880124802
:1002F000006840F001001049086010BD0C000020AB
:1003000000012142D0050020F20500200080224299
:100310008881224208000020BF1600082C06002019
:10032000090000200A0000200B0000201F1B00080D
:100330007F1F0008242C01401404014010B500F078
:1003400055FA2E48006840F001002C490860084624
:10035000006840F0020008600846006840F4005061
:10036000086026480C30006840F0010023490C3139
:100370000860081F006840F00100091F0860081DA0
:10038000006840F00200091D0860081F006840F086
:100390000200091F0860081D006840F40050091D94
:1003A0000860081F006840F40050091F08601448E6
:1003B000806940F00100124988611248806820F08D
:1003C0000F00104988600846806820F0D0008860DF
:1003D0000846406920F00D010A48416101220021D0
:1003E000062000F0BBFA01221146072000F0B6FA01
:1003F00001221146172000F0B1FA10BD000401409F
:10040000001002400000014010B50346002440F2F5
:10041000E1704F4908600120486088600020C86092
:10042000086148611AE04A49086800F09DF850B137
:100430004848834206D31B1A45480068401C44497B
:1004400008600BE00BE04448834206D31B1A404887
:100450000068401C3E49086000E000E0E3E700BFA0
:10046000002445E03A49086800F07EF8F8B13B48BE
:10047000005D00EB4000C000C0EB00108000C0EB4E
:100480000010B3EB800F11D33448005D00EB400047
:10049000C000C0EB00108000C0EB0010A3EB800395
:1004A0002B484068401C2A49486020E022E02C4844
:1004B000005D00EB4000C000C0EB00108000C0EB0E
:1004C0000010B3EB800F11D32548005D00EB400016
:1004D000C000C0EB00108000C0EB0010A3EB800355
:1004E0001B484068401C1A49486000E002E0641C58
:1004F0000C2CB7D300BF0AE01A48834206D31B1A5C
:1005000013488068401C1249886000E000E0F3E76F
:1005100000BF0BE0B3F5616F07D3A3F561630C482F
:10052000C068401C0A49C86000E000E0F2E700BF74
:1005300009E03C2B06D33C3B05480069401C0449BC
:10054000086100E000E0F4E700BF0148436110BD2E
:10055000140600200085E2018033E1011C00002028
:100560002800002080510100014601F0030028B955
:100570006420B1FBF0F200FB121030B94FF4C870E8
:10058000B1FBF0F200FB121008B901207047002007
:10059000FCE7000010B501220123C3EB4203444CE9
:1005A000E05C002115E000F080031BB90023414C02
:1005B000236002E001233F4C23604306180E002312
:1005C0003C4C103C236001233B4CC4F88C314B1C49
:1005D000D9B20829E7DB0223C3EB4203344CE05CC9
:1005E000002115E000F080031BB90023314C23608B
:1005F00002E001232F4C23604306180E00232D4CEC
:10060000103C236001232C4CC4F88C314B1CD9B214
:100610000829E7DB0123C3EB4203284CE05C0021FF
:1006200015E000F080031BB90023224C236002E098
:100630000123204C23604306180E00231D4C103C60
:10064000236001231C4CC4F88C314B1CD9B20829FF
:10065000E7DB0223C3EB4203184CE05C002115E00A
:1006600000F080031BB90023124C236002E0012339
:10067000104C23604306180E00230E4C103C2360E0
:1006800001230D4CC4F88C314B1CD9B20829E7DB8F
:100690000123084C083C23600023074CC4F89C311C
:1006A000044C083C2360044CC4F88C3110BD00009D
:1006B000380000209C012142000021423600002029
:1006C00010B501220123C3EB4203444CE05C00213E
:1006D00015E000F080031BB90023414C236002E0C9
:1006E00001233F4C23604306180E00233C4C083C7A
:1006F000236001233B4CC4F8A8314B1CD9B2082914
:10070000E7DB0223C3EB4203344CE05C002115E03D
:1007100000F080031BB90023314C236002E0012369
:100720002F4C23604306180E00232D4C083C2360F9
:1007300001232C4CC4F8A8314B1CD9B20829E7DBA3
:100740000123C3EB4203284CE05C002115E000F0DC
:1007500080031BB90023224C236002E00123204CBC
:1007600023604306180E00231D4C083C2360012320
:100770001C4CC4F8A8314B1CD9B20829E7DB022372
:10078000C3EB4203184CE05C002115E000F080034D
:100790001BB90023124C236002E00123104C23609C
:1007A0004306180E00230E4C083C236001230D4C19
:1007B000C4F8A8314B1CD9B20829E7DB0123084C47
:1007C000241F23600023074CC4F8B031044C241FBD
:1007D0002360044CC4F8A83110BD0000380000208C
:1007E000B001224200002242360000201A488069EF
:1007F00040F00400184988610846806940F0100004
:1008000088611648006820F00F0014490860084607
:10081000006840F0080008601148006820F0F0000F
:100820000F4908600846006840F0800008600846EC
:10083000406820F4700048600846406840F40000BA
:1008400048600846C06840F00200C8600846C068BA
:1008500040F40050C860704700100240000801409A
:10086000001001401848806940F004001649886172
:100870000846806940F0200088611448006820F430
:100880007060124908600846006840F440700860D3
:100890000F48006820F00F000D4908600846006806
:1008A00040F0030008600A480830006840F4807097
:1008B00007490831086005480C30006840F0040022
:1008C00002490C31086070470010024000140140DA
:1008D000040801403EB51748008800F00100C8B187
:1008E000144818300488001F008844EA0044204659
:1008F000FFF78AFD104840690F4909690E4AD2681E
:10090000CDE9002102900C488368426801680BA081
:1009100000F04AFC0748008800F0020010B10CA06B
:1009200000F042FC0348008820F0030001490880E1
:100930003EBD0000042800401406002025642D253B
:10094000642D25642025643A25643A25640D0A0047
:10095000C4D6D6D3B5BDB4EF0D0A00002DE9F047DB
:100960000C4615464FF4A06202F007062E4F396878
:100970004FF6FF0739402D4F0F4347EA06212A4F14
:10098000396000BF26462F4602F00701C1F1070972
:10099000B9F1040F02D94FF0040901E0C1F10709D0
:1009A000C84601F10409B9F1070F02D24FF000095E
:1009B00001E0A1F10309CC464FF0010909FA08F959
:1009C000A9F1010909EA060909FA0CF94FF0010A2F
:1009D0000AFA0CFAAAF1010A0AEA070A49EA0A0322
:1009E00000BF02461946002A0ADA0E074FEA166CC3
:1009F0000D4E0C3602F00F073F1F06F807C003E04C
:100A00000E07370E0A4EB75400BF00BF00F01F029A
:100A1000012191404209920002F1E022C2F8001146
:100A200000BFBDE8F08700000CED00E00000FA0513
:100A300000E400E010B500F001F810BD0CB5002096
:100A4000019000903348006840F4803031490860DC
:100A500000BF3048006800F4003000900198401C4E
:100A60000190009818B90198B0F5A06FF1D129480C
:100A7000006800F4003010B10120009001E0002077
:100A800000900098012843D12348006840F01000EE
:100A9000214908600846006820F003000860084605
:100AA000006840F0020008601A4840681949486030
:100AB0000846406848600846406840F480604860E6
:100AC0000846406820F47C1048600846406840F4BE
:100AD000E81048600846006840F08070086000BF79
:100AE0000C48006800F000700028F9D00948406800
:100AF00020F00300074948600846406840F00200C3
:100B0000486000BF0348406800F00C000828F9D195
:100B10000CBD0000001002400020024008480068A0
:100B200008B9012000E00020054908600548D0F818
:100B3000880108B9012000E00020034908607047DF
:100B4000A0012142008022428881224210B5134830
:100B5000006840F0010011490860084640681049EB
:100B600008400E494860084600680E4908400B4995
:100B700008600846006820F4802008600846406845
:100B800020F4FE0048604FF41F008860FFF752FF1A
:100B90004FF000600449086010BD000000100240E2
:100BA0000000FFF8FFFFF6FE08ED00E070B5054617
:100BB0000C462D48806940F400602B498861084646
:100BC000C06840F40060C8600846C06820F4006057
:100BD000C8600121254800F0EBF90121234800F00D
:100BE000EAF90020214910310880081F008840F0F0
:100BF0000100091F088001211C4800F0D9F90121DA
:100C00001A4800F0D8F90020184910310880012254
:100C100011461920FFF7A2FE0121144800F0C8F97F
:100C20000121124800F0C7F9002010491031088056
:100C30000E49243108800D482C300480681E091D9F
:100C400008800A48008840F0010008490880012116
:100C5000064800F0ADF90121044800F0ACF900208D
:100C600002491031088070BD00100240002C014084
:100C700010B53148008800F00100002858D02F48F6
:100C8000006808B9012000E000202C4908602C48C9
:100C9000D0F8880108B9012000E000202949086047
:100CA00022212948FFF779FA22212848FFF775FA0F
:100CB0002748007890B94FF48C6226492648FFF700
:100CC00053FA002025490870254908702549087005
:100CD0001F480078401C1E49087029E01C48007815
:100CE000012812D14FF48C621F491B48FFF73CFAD0
:100CF00000201A4908701A4908701A4908701448E7
:100D00000078401C1249087012E01148007802284F
:100D10000ED14FF48C6215490F48FFF725FA0020D9
:100D20000E4908700E4908700E490870084908708D
:100D300000200149088010BD102C0140A001214273
:100D40000080224288812242D0050020F205002046
:100D500008000020BF1600082C0600200900002013
:100D60000A0000200B0000201F1B00087F1F000846
:100D700010B54FF08040008A00F0010000283AD002
:100D80001F4920480078401C085CC0431E49487039
:100D90001B491C480078085CC0431B4908701B496C
:100DA0000888C11700EB1161090A194A51701749E7
:100DB0000888C11700EB11610912A0EB0121117025
:100DC00001211248008800F00EFA104908800D48F1
:100DD0000078401C0B49087008460078401C0870D9
:100DE0000878C11700EBD1614911A0EB4111054A08
:100DF0001170FFF7CFFB00204FF08041088210BD3B
:100E0000D00500201400002036000020160000202D
:100E10003800002070B505460C461448C06940F003
:100E200001001249C8610846006940F001000861EC
:100E30000846006920F0010008618804808940F0BC
:100E4000010089048881012211461C20FFF786FDDC
:100E500000204FF08041888408468485681E0885FC
:100E60000846008840F00100088070BD0010024074
:100E700010B52248008800F0010000283AD020492F
:100E800020480078401C085CC0431F4948701C493A
:100E90001C480078085CC0431B4908701B4908883F
:100EA000C11700EB1161090A194A517017490888E6
:100EB000C11700EB11610912A0EB01211170012192
:100EC0001248008800F08FF9104908800D4800781A
:100ED000401C0C49087008460078401C08700878CF
:100EE000C11700EBD1614911A0EB4111054A117006
:100EF000FFF7E6FB00200149088010BD1004004008
:100F0000F205002018000020360000201A00002002
:100F10003800002070B505460C461748C06940F0FF
:100F200002001549C8610846006940F002000861E6
:100F30000846006920F0020008611048008840F06F
:100F400001000E490880012211461D20FFF706FD11
:100F500000200A4918310880084820300480681EA3
:100F6000091D088005480C38008840F0010003493D
:100F70000C39088070BD0000001002400C040040D5
:100F80000948008800F0010050B1012007490870AD
:100F900005481038008820F0010003491039088006
:100FA000002001490880704710080040010000201F
:100FB000CA4302827047CA430282704714490988B3
:100FC00001F0200111B31249091D0988C8B2114965
:100FD0000978D9B910490978C82914DA0F490E4A95
:100FE000127888540C490978491C0B4A1170002169
:100FF0000B4A11800A492439098841F00101084A45
:10100000243A118002E00121024A11707047000069
:1010100000380140010000200000002040000020B6
:10102000242C014010B504462148806940F004009A
:101030001F4988610846806940F4804088611D48E6
:10104000006820F47F601B4908600846006840F48F
:101050000B6008601648C06840F480401449C860BE
:101060000846C06820F48040C8601348B0FBF4F024
:1010700012490880081D008840F02000091D0880E2
:10108000022200212520FFF769FC0C48001D008882
:1010900040F004000949091D08800846008840F016
:1010A000080008800846008840F40050088010BD01
:1010B000001002400408014000A24A040838014020
:1010C0001349098801F0200101B31149091D09885C
:1010D000C8B210490978C9B90F490978C82912DA84
:1010E0000E490D4A127888540B490978491C0A4A5E
:1010F000117000214FF0804291841146098841F01F
:101100000101118002E00121024A117070470000C4
:1011100000440040030000200200002008010020DD
:101120001449098801F02001F9B11249091D098803
:10113000C8B211490978C1B910490988B1F5806F61
:1011400014DA0F490D4A128888540C490988491C41
:101150000A4A118000210B4A11800A492439098862
:1011600041F00101074A243A118002E00121024ABC
:101170001170704700480040060000200400002065
:10118000D001002024040040054800680549098872
:10119000084303490860002001490831086070478E
:1011A000002C0040340000200FB4054B10B503A9FB
:1011B000044A029800F02EF810BC5DF814FB000001
:1011C000F11300083C00002002E008C8121F08C10B
:1011D000002AFAD170477047002001E001C1121FB8
:1011E000002AFBD17047002210E000F4004333B91D
:1011F0004FF6FF7303EA40005B1E184005E04FF610
:10120000FF7303EA400040F00100521C8A42ECD315
:10121000704700002DE9FF4F8BB09A460F460546F8
:10122000002606E025280BD052460D9990476D1CEC
:10123000761C28780028F5D10FB03046BDE8F08F35
:101240000024A0460122604900E0044315F8013F54
:10125000203B02FA03F00842F7D128782E2817D154
:1012600015F8010F44F004042A280ED06FF02F0265
:101270002878A0F1300109290AD808EB880102EB8F
:10128000410100EB01086D1CF2E757F8048B6D1C5F
:10129000287869283ED006DC0028CDD063280BD002
:1012A000642804D136E0732810D075284BD05246FC
:1012B0000D999047761C85E017F8040B8DF8000017
:1012C00000208DF80100E946012003E057F8049B57
:1012D0004FF0FF3061074FF0000401D40AE0641CB6
:1012E00044450DDA8442FADB19F804100029F6D1DE
:1012F00006E0641C8442FCDB19F804100029F8D1D4
:10130000264404E019F8010B52460D999047641EDB
:10131000F8D257E001CF4FF00A0B002802DA404222
:101320002D2102E0210504D52B218DF82410012167
:1013300003E0E10705D02021F7E70DF1200908912E
:101340000CE00021F9E701CF4FF00A0BF9E759460D
:10135000FEF72EFF01F1300209F8012D0028F6D129
:10136000ADEB090000F1200B600701D44FF001083C
:10137000D84502DDA8EB0B0000E0002080460024E9
:1013800006E009A85246005D0D999047641C761C42
:1013900008988442F5DB04E0302052460D999047CE
:1013A000761CB8F10001A8F10108F5DC05E019F898
:1013B000010B52460D999047761CBBF10001ABF131
:1013C000010BF4DC6D1C34E70928010010B5002185
:1013D0000AE0002205E0002300E05B1C642BFCD344
:1013E000521C642AF7D3491C8142F2D310BD00007D
:1013F000054B188000BF044A121F128802F08002B9
:10140000002AF8D070470000043801401A4880696B
:1014100040F00400184988610846806940F01000D7
:101420008861164800681649084014490860084653
:10143000006814490843114908601348406813497B
:1014400008401149486008464068114908430E4960
:10145000486000200F4908600F49C1F88C010D4910
:10146000083908600D4908600C49083908600C49C2
:10147000C1F8AC01704700000010024000080140B4
:10148000FF0F0F0F0030303000100140FF00F0FF61
:10149000003303009C01214200002142B00122429E
:1014A00000002242FFF7DEF9FFF7A0F94FF4E13028
:1014B000FFF7B8FDFFF7AAFFFEF740FF4EF2E84145
:1014C00048F6A040FFF772FB0A214FF4E150FFF706
:1014D000A1FC0A214FF4E150FFF71CFD82E0424CD1
:1014E00000BF201EA4F10104FBD140484049097807
:1014F00000EB41103F490978405C3F4981F82000EA
:101500003A483E49097800EB41103A490978405C75
:101510003B4981F8200037480078401C3549087065
:1015200032483349097800EB411032490978405C70
:10153000314981F821002D483049097800EB4110EC
:101540002C490978405C2E4981F82100294800780F
:10155000401C2849087008460078202818DB002025
:10156000087023480078401C2149087023480078FF
:10157000401C2249087008460078052801DB00203D
:1015800008701B480078232802DB002018490870E7
:1015900000201C4908700CE017491A480078801C8C
:1015A000085C184A1278885416480078401C15497F
:1015B0000870144800782028EEDB002011490870DC
:1015C0000CE00F490F480078801C085C0D4A127827
:1015D00088540C480078401C0A4908700948007873
:1015E0002028EEDB7BE70000400D03002C060020E6
:1015F0000A00002009000020D00500200B00002078
:10160000F2050020070000200038000078000038B4
:101610000000380000780001F80003F80003F8002B
:101620000EF80007FC0003FC0000F80000F80000C2
:10163000F80000F80000780000780000FC0000FCD2
:101640000000EE00DFEE00FFCE00E00E00800E0096
:101650008006000006000003000007000007C0002D
:10166000F00000F00000F00000F00001C00003E016
:101670000007E00007E0000FE0000FE1000FFF802F
:1016800007FF8007C00007C00007C00007C00007B1
:10169000C00007E00007F00007F80007F800073C6B
:1016A0000007F8000FE0000F80001E00003E000061
:1016B000360000760000E00000E000007800000046
:1016C000000E0C10141024104411840E0C000000A5
:1016D000000000000000000000000000000000000A
:1016E00000080408041FFC000400040000000000BF
:1016F00000000000000000000000000000000000EA
:1017000000080408041FFC0004000400000000009E
:1017100000000000000000000000000000000000C9
:10172000027C7E440247FC44447C44000008801153
:101730007FEA4224422A42317F008000800000007C
:101740000000000000000000000000000000000099
:101750000000000000000000000000000000000089
:10176000000202422222221A2202220222FE220227
:101770002202220A22122263FF0000000000001051
:1017800000100017FF94907492149117FE1000102F
:101790000013F03002D00117FE100010000000000E
:1017A00008130C10E8900870701790101000FF00DC
:1017B000820082FF820882088208FF080000000081
:1017C00001000203EC022002200228FE2612201251
:1017D000281226122013E010081007000000000055
:1017E000000000006C006C00000000000000000021
:1017F00000000000000000000000000000000010D9
:1018000001108111021602108410449028701010EB
:1018100028104411821402120111811001000004E9
:10182000010401040204040408043004C0FF00049D
:10183000C004300408040404020401040100002070
:1018400004210621043FF82108210800027F2249D3
:101850002249227FFE492249227F22000200000005
:10186000042004200420042004200420043FFC2041
:1018700004200420042004200420040004000000AC
:101880000000000000000000000000000000000058
:101890000000000000000000000000000000000840
:1018A0000208440FA8F81008680F8400000200071F
:1018B0007F1A42E24202420A42067F030000000011
:1018C0000000041808683108C10B011D82E9620993
:1018D0001409080914492229C20801000100000066
:1018E00008130C10E8900870701790101000FF009B
:1018F000820082FF820882088208FF080000000040
:10190000000000006C006C000000000000000000FF
:1019100000000000000000000000000000000000C7
:101920000000001FFF1082108230825082908210CF
:10193000821082108210821FFF0000000000000051
:1019400004040804100460058006020001FFFE067E
:101950000001800240042018100008000800000167
:101960000006001FFFE00000C020802EA02AA2AACF
:10197000A16ABE2AA02AA02EA0208000C0000000DC
:101980001010101190129014901890F09017FF10F2
:101990009010901090109010901010001000000403
:1019A00008040CFFF8041004140008423147C24A2E
:1019B00004521863E24201020203FC00000000002E
:1019C0000000000000000000000000000000000017
:1019D0000000000000000000000000000000000403
:1019E000440CE63544C6480C48044008801884E599
:1019F0002422222512288930800040004000000067
:101A000001000203EC022002200228FE261220120E
:101A1000281226122013E010081007000000000012
:101A200008130C10E8900870701790101000FF0059
:101A3000820082FF820882088208FF0800000000FE
:101A4000000000006C006C000000000000000000BE
:101A50000000000000000000000000000000002066
:101A6000202040208021FFF6002008201020202781
:101A7000FC2082F102220224022002201E0000002B
:101A800022002200247FA44928493049207FFF49B1
:101A900020493049287FA4002400220022000000B1
:101AA0000000000FFC0004000400040004FFFC0020
:101AB000040004000400040FFE00000000000020E9
:101AC0000027FF24002410269025902490FCFE245B
:101AD00090259026902412240127FE20000000006B
:101AE0000000003FFE2004200420042004200420E5
:101AF000042004200420043FFE0000000000000039
:101B000000000000000000000000000000000000D5
:101B100000000000000000000000000000000000C5
:101B2000000E0C10141024104411840E0C00000040
:101B300000000000000000000000000000000000A5
:101B400000080408041FFC0004000400000000005A
:101B50000000000000000000000000000000000085
:101B60000000E00320042408241FFC0024000000DF
:101B70000000000000000000000000000000000065
:101B8000027C7E440247FC44447C440000088011EF
:101B90007FEA4224422A42317F0080008000000018
:101BA0000000000000000000000000000000000035
:101BB0000000000000000000000000000000000025
:101BC000000202422222221A2202220222FE2202C3
:101BD0002202220A22122263FF00000000000010ED
:101BE00000100017FF94907492149117FE100010CB
:101BF0000013F03002D00117FE10001000000000AA
:101C000008130C10E8900870701790101000FF0077
:101C1000820082FF820882088208FF08000000001C
:101C200001000203EC022002200228FE26122012EC
:101C3000281226122013E0100810070000000000F0
:101C4000000000006C006C000000000000000000BC
:101C50000000000000000000000000000000001074
:101C60000110811102160210841044902870101087
:101C70002810441182140212011181100100000485
:101C8000010401040204040408043004C0FF000439
:101C9000C00430040804040402040104010000200C
:101CA00004210621043FF82108210800027F22496F
:101CB0002249227FFE492249227F220002000000A1
:101CC000042004200420042004200420043FFC20DD
:101CD0000420042004200420042004000400000048
:101CE00000000000000000000000000000000000F4
:101CF00000000000000000000000000000000008DC
:101D00000208440FA8F81008680F840000020007BA
:101D10007F1A42E24202420A42067F0300000000AC
:101D20000000041808683108C10B011D82E962092E
:101D30001409080914492229C20801000100000001
:101D400008130C10E8900870701790101000FF0036
:101D5000820082FF820882088208FF0800000000DB
:101D6000000000006C006C0000000000000000009B
:101D7000000000000000000000000000000000085B
:101D8000003000283F2BAA2AAA2AAAAAAA6ABE2A99
:101D9000AA2AAA2AAA2BAA283F2800300000000855
:101DA000600980FFFF09007DC142415C59426A7DA4
:101DB000CA00447D4C42725C4242417D40000000BA
:101DC000027C7E440247FC44447C440000088011AD
:101DD0007FEA4224422A42317F00800080000020B6
:101DE00000200027FFA49264922C92349224922423
:101DF0009224926492A49227FF20002000000010F9
:101E000004110411081110112011401180FFFF115D
:101E1000801140112011101108110410040000005D
:101E200000000000000000000000000000000000B2
:101E3000000000000000000000000000000000049E
:101E4000440CE63544C6480C48044008801884E534
:101E50002422222512288930800040004000000002
:101E600001000203EC022002200228FE26122012AA
:101E7000281226122013E0100810070000000000AE
:101E800008130C10E8900870701790101000FF00F5
:101E9000820082FF820882088208FF08000000009A
:101EA000000000006C006C0000000000000000005A
:101EB000000000000000000000000000000000081A
:101EC0000210523E525294D2A45328574A5A915269
:101ED0007E5220725012881E040002000200000090
:101EE0000000000FFC0004000400040004FFFC00DC
:101EF000040004000400040FFE00000000000000C5
:101F0000027C7E440247FC44447C4400000880116B
:101F10007FEA4224422A42317F0080008000000094
:101F2000040406040404080408FFFF000000000085
:101F300000FFFC0202040208021002001E00000062
:101F40000000003FFE200420042004200420042080
:101F5000042004200420043FFE00000000000000D4
:101F60000000000000000000000000000000000071
:101F70000000000000000000000000000000000061
:101F8000000E0C10141024104411840E0C000000DC
:101F90000000000000000000000000000000000041
:101FA000001F9810841104110410881070000000A4
:101FB0000000000000000000000000000000000021
:101FC00000080408041FFC000400040000000000D6
:101FD0000000000000000000000000000000000001
:101FE000027C7E440247FC44447C4400000880118B
:101FF0007FEA4224422A42317F00800080000000B4
:1020000000000000000000000000000000000000D0
:1020100000000000000000000000000000000000C0
:10202000000202422222221A2202220222FE22025E
:102030002202220A22122263FF0000000000001088
:1020400000100017FF94907492149117FE10001066
:102050000013F03002D00117FE1000100000000045
:1020600008130C10E8900870701790101000FF0013
:10207000820082FF820882088208FF0800000000B8
:1020800001000203EC022002200228FE2612201288
:10209000281226122013E01008100700000000008C
:1020A000000000006C006C00000000000000000058
:1020B0000000000000000000000000000000001010
:1020C0000110811102160210841044902870101023
:1020D0002810441182140212011181100100000421
:1020E000010401040204040408043004C0FF0004D5
:1020F000C0043004080404040204010401000020A8
:1021000004210621043FF82108210800027F22490A
:102110002249227FFE492249227F2200020000003C
:10212000042004200420042004200420043FFC2078
:1021300004200420042004200420040004000000E3
:10214000000000000000000000000000000000008F
:102150000000000000000000000000000000000877
:102160000208440FA8F81008680F84000002000756
:102170007F1A42E24202420A42067F030000000048
:102180000000041808683108C10B011D82E96209CA
:102190001409080914492229C2080100010000009D
:1021A00008130C10E8900870701790101000FF00D2
:1021B000820082FF820882088208FF080000000077
:1021C000000000006C006C00000000000000000037
:1021D00000000000000000000000000000000000FF
:1021E00000000000FFFE929292929292929292923E
:1021F0009292929292FE9200FF0000000000000076
:10220000040406040404080408FFFF0000000000A2
:1022100000FFFC0202040208021002001E0000017E
:102220000006001FFFE00000C020802EA02AA2AA06
:10223000A16ABE2AA02AA02EA0208000C000000013
:102240001010101190129014901890F09017FF1029
:10225000901090109010901090101000100000043A
:1022600008040CFFF8041004140008423147C24A65
:1022700004521863E24201020203FC000000000065
:10228000000000000000000000000000000000004E
:10229000000000000000000000000000000000043A
:1022A000440CE63544C6480C48044008801884E5D0
:1022B000242222251228893080004000400000009E
:1022C00001000203EC022002200228FE2612201246
:1022D000281226122013E01008100700000000004A
:1022E00008130C10E8900870701790101000FF0091
:1022F000820082FF820882088208FF080000000036
:10230000000000006C006C000000000000000000F5
:1023100000000000000000000000000000000000BD
:1023200080010006001FFFE000200027F024202489
:102330002027F0200220013FFE20002000000004A2
:1023400008040C0408FFF0041004111002100C1F04
:10235000F0910071021101110211FC100000004007
:1023600000400047FF441244227FC244024402441A
:10237000027FC24422442247FF4000400000000088
:10238000027C7E440247FC44447C440000088011E7
:102390007FEA4224422A42317F00800080000040D0
:1023A00000400047FF441244227FC24402440244DA
:1023B000027FC24422442247FF4000400000000048
:1023C000000000000000000000000000000000000D
:1023D00000000000000000000000000000000000FD
:1023E000002400080000002040000000C811000880
:1023F0004024000840000020F00E0000D811000822
:1024000000000000000000000000000000000000CC
:102410000000000000000100000001001F1D1F1E41
:102420001F1E1F1F1E1F1E1F1F1C1F1E1F1E1F1FC4
:102430001E1F1E1F00000000000000000000000022
:0400000508000131BD
:00000001FF
