Component: ARM Compiler 5.06 update 1 (build 61) Tool: armlink [4d35a8]

==============================================================================

Section Cross References

    system_stm32f10x.o(i.SetSysClock) refers to system_stm32f10x.o(i.SetSysClockTo72) for SetSysClockTo72
    system_stm32f10x.o(i.SystemCoreClockUpdate) refers to system_stm32f10x.o(.data) for SystemCoreClock
    system_stm32f10x.o(i.SystemInit) refers to system_stm32f10x.o(i.SetSysClock) for SetSysClock
    startup_stm32f10x_hd.o(RESET) refers to startup_stm32f10x_hd.o(STACK) for __initial_sp
    startup_stm32f10x_hd.o(RESET) refers to startup_stm32f10x_hd.o(.text) for Reset_Handler
    startup_stm32f10x_hd.o(RESET) refers to sys.o(i.SysTick_Handler) for SysTick_Handler
    startup_stm32f10x_hd.o(RESET) refers to wdg.o(i.WWDG_IRQHandler) for WWDG_IRQHandler
    startup_stm32f10x_hd.o(RESET) refers to rtc.o(i.RTC_IRQHandler) for RTC_IRQHandler
    startup_stm32f10x_hd.o(RESET) refers to exti.o(i.EXTI0_IRQHandler) for EXTI0_IRQHandler
    startup_stm32f10x_hd.o(RESET) refers to timer.o(i.TIM1_UP_IRQHandler) for TIM1_UP_IRQHandler
    startup_stm32f10x_hd.o(RESET) refers to timer.o(i.TIM2_IRQHandler) for TIM2_IRQHandler
    startup_stm32f10x_hd.o(RESET) refers to timer.o(i.TIM3_IRQHandler) for TIM3_IRQHandler
    startup_stm32f10x_hd.o(RESET) refers to timer.o(i.TIM4_IRQHandler) for TIM4_IRQHandler
    startup_stm32f10x_hd.o(RESET) refers to usart.o(i.USART1_IRQHandler) for USART1_IRQHandler
    startup_stm32f10x_hd.o(RESET) refers to usart.o(i.USART2_IRQHandler) for USART2_IRQHandler
    startup_stm32f10x_hd.o(RESET) refers to usart.o(i.USART3_IRQHandler) for USART3_IRQHandler
    startup_stm32f10x_hd.o(.text) refers to system_stm32f10x.o(i.SystemInit) for SystemInit
    startup_stm32f10x_hd.o(.text) refers to entry.o(.ARM.Collect$$$$00000000) for __main
==============================================================================

Removing Unused input sections from the image.

    Removing core_cm3.o(.emb_text), (32 bytes).
    Removing system_stm32f10x.o(i.SystemCoreClockUpdate), (164 bytes).
    Removing system_stm32f10x.o(.data), (20 bytes).
    Removing startup_stm32f10x_hd.o(HEAP), (512 bytes).
    Removing beep.o(i.BEEP_Init), (44 bytes).
    Removing delay.o(i.Delay_Ms), (54 bytes).
    Removing delay.o(i.Delay_Us), (50 bytes).
    Removing delay.o(i.delay_us), (22 bytes).
    Removing key.o(i.KEY_Scanf), (116 bytes).
    Removing key.o(.data), (1 bytes).
    Removing sys.o(i.SysTickInit), (52 bytes).
    Removing usart.o(i.USART1_SendString), (40 bytes).
    Removing usart.o(i.USART_X_Init), (352 bytes).
    Removing usart.o(i.USART_X_SendString), (28 bytes).
    Removing usart.o(i.fgetc), (28 bytes).
    Removing exti.o(i.EVENT_Init), (44 bytes).
    Removing timer.o(i.TIM4_Init), (108 bytes).
    Removing timer.o(i.TIM4_PWM_Init), (440 bytes).
==============================================================================

Image Symbol Table

    Local Symbols

    Symbol Name                              Value     Ov Type        Size  Object(Section)

    ../clib/microlib/division.c              0x00000000   Number         0  uidiv.o ABSOLUTE
    ../clib/microlib/division.c              0x00000000   Number         0  uldiv.o ABSOLUTE
    ../clib/microlib/init/entry.s            0x00000000   Number         0  entry5.o ABSOLUTE
    ../clib/microlib/init/entry.s            0x00000000   Number         0  entry2.o ABSOLUTE
    ../clib/microlib/init/entry.s            0x00000000   Number         0  entry11b.o ABSOLUTE
    ../clib/microlib/init/entry.s            0x00000000   Number         0  entry9b.o ABSOLUTE
    ../clib/microlib/init/entry.s            0x00000000   Number         0  entry10b.o ABSOLUTE
    ../clib/microlib/init/entry.s            0x00000000   Number         0  entry11a.o ABSOLUTE
    ../clib/microlib/init/entry.s            0x00000000   Number         0  entry7a.o ABSOLUTE
    ../clib/microlib/init/entry.s            0x00000000   Number         0  entry10a.o ABSOLUTE
    ../clib/microlib/init/entry.s            0x00000000   Number         0  entry8b.o ABSOLUTE
    ../clib/microlib/init/entry.s            0x00000000   Number         0  entry.o ABSOLUTE
    ../clib/microlib/init/entry.s            0x00000000   Number         0  entry9a.o ABSOLUTE
    ../clib/microlib/init/entry.s            0x00000000   Number         0  entry8a.o ABSOLUTE
    ../clib/microlib/init/entry.s            0x00000000   Number         0  entry7b.o ABSOLUTE
    ../clib/microlib/longlong.c              0x00000000   Number         0  llshl.o ABSOLUTE
    ../clib/microlib/longlong.c              0x00000000   Number         0  llushr.o ABSOLUTE
    ../clib/microlib/longlong.c              0x00000000   Number         0  llsshr.o ABSOLUTE
    ../clib/microlib/printf/printf.c         0x00000000   Number         0  printf7.o ABSOLUTE
    ../clib/microlib/printf/printf.c         0x00000000   Number         0  printf5.o ABSOLUTE
    ../clib/microlib/printf/printf.c         0x00000000   Number         0  printf4.o ABSOLUTE
    ../clib/microlib/printf/printf.c         0x00000000   Number         0  printf3.o ABSOLUTE
    ../clib/microlib/printf/printf.c         0x00000000   Number         0  printf2.o ABSOLUTE
    ../clib/microlib/printf/printf.c         0x00000000   Number         0  printf1.o ABSOLUTE
    ../clib/microlib/printf/printf.c         0x00000000   Number         0  printf0.o ABSOLUTE
    ../clib/microlib/printf/printf.c         0x00000000   Number         0  printfb.o ABSOLUTE
    ../clib/microlib/printf/printf.c         0x00000000   Number         0  printf6.o ABSOLUTE
    ../clib/microlib/printf/printf.c         0x00000000   Number         0  printfa.o ABSOLUTE
    ../clib/microlib/printf/printf.c         0x00000000   Number         0  printf8.o ABSOLUTE
    ../clib/microlib/printf/stubs.s          0x00000000   Number         0  stubs.o ABSOLUTE
    ../clib/microlib/stdio/streams.c         0x00000000   Number         0  stdout.o ABSOLUTE
    ../clib/microlib/string/memcpy.c         0x00000000   Number         0  memcpya.o ABSOLUTE
    ../clib/microlib/string/memcpy.c         0x00000000   Number         0  memcpyb.o ABSOLUTE
    ../clib/microlib/string/memset.c         0x00000000   Number         0  memseta.o ABSOLUTE
    ../clib/microlib/string/strcpy.c         0x00000000   Number         0  strcpy.o ABSOLUTE
    ../clib/microlib/string/strlen.c         0x00000000   Number         0  strlen.o ABSOLUTE
    ../clib/microlib/string/strncpy.c        0x00000000   Number         0  strncpy.o ABSOLUTE
    ../clib/microlib/string/strstr.c         0x00000000   Number         0  strstr.o ABSOLUTE
    ../clib/microlib/stubs.s                 0x00000000   Number         0  iusefp.o ABSOLUTE
    ../fplib/microlib/fpadd.c                0x00000000   Number         0  dadd.o ABSOLUTE
    ../fplib/microlib/fpdiv.c                0x00000000   Number         0  ddiv.o ABSOLUTE
    ../fplib/microlib/fpepilogue.c           0x00000000   Number         0  depilogue.o ABSOLUTE
    ../fplib/microlib/fpfix.c                0x00000000   Number         0  dfixul.o ABSOLUTE
    ../fplib/microlib/fpmul.c                0x00000000   Number         0  dmul.o ABSOLUTE
    ..\FWlib\src\misc.c                      0x00000000   Number         0  misc.o ABSOLUTE
    ..\FWlib\src\stm32f10x_adc.c             0x00000000   Number         0  stm32f10x_adc.o ABSOLUTE
    ..\FWlib\src\stm32f10x_bkp.c             0x00000000   Number         0  stm32f10x_bkp.o ABSOLUTE
    ..\FWlib\src\stm32f10x_can.c             0x00000000   Number         0  stm32f10x_can.o ABSOLUTE
    ..\FWlib\src\stm32f10x_cec.c             0x00000000   Number         0  stm32f10x_cec.o ABSOLUTE
    ..\FWlib\src\stm32f10x_crc.c             0x00000000   Number         0  stm32f10x_crc.o ABSOLUTE
    ..\FWlib\src\stm32f10x_dac.c             0x00000000   Number         0  stm32f10x_dac.o ABSOLUTE
    ..\FWlib\src\stm32f10x_dbgmcu.c          0x00000000   Number         0  stm32f10x_dbgmcu.o ABSOLUTE
    ..\FWlib\src\stm32f10x_dma.c             0x00000000   Number         0  stm32f10x_dma.o ABSOLUTE
    ..\FWlib\src\stm32f10x_exti.c            0x00000000   Number         0  stm32f10x_exti.o ABSOLUTE
    ..\FWlib\src\stm32f10x_flash.c           0x00000000   Number         0  stm32f10x_flash.o ABSOLUTE
    ..\FWlib\src\stm32f10x_fsmc.c            0x00000000   Number         0  stm32f10x_fsmc.o ABSOLUTE
    ..\FWlib\src\stm32f10x_gpio.c            0x00000000   Number         0  stm32f10x_gpio.o ABSOLUTE
    ..\FWlib\src\stm32f10x_i2c.c             0x00000000   Number         0  stm32f10x_i2c.o ABSOLUTE
    ..\FWlib\src\stm32f10x_iwdg.c            0x00000000   Number         0  stm32f10x_iwdg.o ABSOLUTE
    ..\FWlib\src\stm32f10x_pwr.c             0x00000000   Number         0  stm32f10x_pwr.o ABSOLUTE
    ..\FWlib\src\stm32f10x_rcc.c             0x00000000   Number         0  stm32f10x_rcc.o ABSOLUTE
    ..\FWlib\src\stm32f10x_rtc.c             0x00000000   Number         0  stm32f10x_rtc.o ABSOLUTE
    ..\FWlib\src\stm32f10x_sdio.c            0x00000000   Number         0  stm32f10x_sdio.o ABSOLUTE
    ..\FWlib\src\stm32f10x_spi.c             0x00000000   Number         0  stm32f10x_spi.o ABSOLUTE
    ..\FWlib\src\stm32f10x_tim.c             0x00000000   Number         0  stm32f10x_tim.o ABSOLUTE
    ..\FWlib\src\stm32f10x_usart.c           0x00000000   Number         0  stm32f10x_usart.o ABSOLUTE
    ..\FWlib\src\stm32f10x_wwdg.c            0x00000000   Number         0  stm32f10x_wwdg.o ABSOLUTE
    ..\\core\\core_cm3.c                     0x00000000   Number         0  core_cm3.o ABSOLUTE
    ..\core\core_cm3.c                       0x00000000   Number         0  core_cm3.o ABSOLUTE
    ..\core\startup_stm32f10x_hd.s           0x00000000   Number         0  startup_stm32f10x_hd.o ABSOLUTE
    ..\core\system_stm32f10x.c               0x00000000   Number         0  system_stm32f10x.o ABSOLUTE
    ..\system\74HC595\74hc595.c              0x00000000   Number         0  74hc595.o ABSOLUTE
    ..\system\ADC\adc.c                      0x00000000   Number         0  adc.o ABSOLUTE
    ..\system\BEEP\beep.c                    0x00000000   Number         0  beep.o ABSOLUTE
    ..\system\BIT_WHILE\bit_while.c          0x00000000   Number         0  bit_while.o ABSOLUTE
    ..\system\BLE\ble.c                      0x00000000   Number         0  ble.o ABSOLUTE
    ..\system\DELAY\delay.c                  0x00000000   Number         0  delay.o ABSOLUTE
    ..\system\DS18B20\ds18b20.c              0x00000000   Number         0  ds18b20.o ABSOLUTE
    ..\system\ESP8266\esp8266.c              0x00000000   Number         0  esp8266.o ABSOLUTE
    ..\system\EXTI\exti.c                    0x00000000   Number         0  exti.o ABSOLUTE
    ..\system\KEY\key.c                      0x00000000   Number         0  key.o ABSOLUTE
    ..\system\LED\led.c                      0x00000000   Number         0  led.o ABSOLUTE
    ..\system\OLED\oled.c                    0x00000000   Number         0  oled.o ABSOLUTE
    ..\system\RTC\rtc.c                      0x00000000   Number         0  rtc.o ABSOLUTE
    ..\system\SYS\sys.c                      0x00000000   Number         0  sys.o ABSOLUTE
    ..\system\TIMER\timer.c                  0x00000000   Number         0  timer.o ABSOLUTE
    ..\system\USART\usart.c                  0x00000000   Number         0  usart.o ABSOLUTE
    ..\system\WDG\wdg.c                      0x00000000   Number         0  wdg.o ABSOLUTE
    ..\system\hanzi.c                        0x00000000   Number         0  hanzi.o ABSOLUTE
    cdrcmple.s                               0x00000000   Number         0  cdrcmple.o ABSOLUTE
    dc.s                                     0x00000000   Number         0  dc.o ABSOLUTE
    handlers.s                               0x00000000   Number         0  handlers.o ABSOLUTE
    init.s                                   0x00000000   Number         0  init.o ABSOLUTE
    main.c                                   0x00000000   Number         0  main.o ABSOLUTE
    RESET                                    0x08000000   Section      304  startup_stm32f10x_hd.o(RESET)
    .ARM.Collect$$$$00000000                 0x08000130   Section        0  entry.o(.ARM.Collect$$$$00000000)
    .ARM.Collect$$$$00000001                 0x08000130   Section        4  entry2.o(.ARM.Collect$$$$00000001)
    .ARM.Collect$$$$00000004                 0x08000134   Section        4  entry5.o(.ARM.Collect$$$$00000004)
    .ARM.Collect$$$$00000008                 0x08000138   Section        0  entry7b.o(.ARM.Collect$$$$00000008)
    .ARM.Collect$$$$0000000A                 0x08000138   Section        0  entry8b.o(.ARM.Collect$$$$0000000A)
    .ARM.Collect$$$$0000000B                 0x08000138   Section        8  entry9a.o(.ARM.Collect$$$$0000000B)
    .ARM.Collect$$$$0000000D                 0x08000140   Section        0  entry10a.o(.ARM.Collect$$$$0000000D)
    .ARM.Collect$$$$0000000F                 0x08000140   Section        0  entry11a.o(.ARM.Collect$$$$0000000F)
    .ARM.Collect$$$$00002712                 0x08000140   Section        4  entry2.o(.ARM.Collect$$$$00002712)
    __lit__00000000                          0x08000140   Data           4  entry2.o(.ARM.Collect$$$$00002712)
    .text                                    0x08000144   Section       36  startup_stm32f10x_hd.o(.text)
    .text                                    0x08000168   Section        0  memcpya.o(.text)
    .text                                    0x0800018c   Section        0  memseta.o(.text)
    .text                                    0x080001b0   Section        0  uidiv.o(.text)
    .text                                    0x080001dc   Section       36  init.o(.text)
    i.EXTI0_IRQHandler                       0x08000200   Section        0  exti.o(i.EXTI0_IRQHandler)
    i.EXTI_KEY_Init                          0x0800033c   Section        0  exti.o(i.EXTI_KEY_Init)
    i.GET_RTC_TIME                           0x08000408   Section        0  rtc.o(i.GET_RTC_TIME)
    i.GET_TIME_STATE                         0x08000568   Section        0  rtc.o(i.GET_TIME_STATE)
    i.HC595_Write_1                          0x08000594   Section        0  74hc595.o(i.HC595_Write_1)
    i.HC595_Write_2                          0x080006c0   Section        0  74hc595.o(i.HC595_Write_2)
    i.KEY_Init                               0x080007ec   Section        0  key.o(i.KEY_Init)
    i.LED_Init                               0x08000864   Section        0  led.o(i.LED_Init)
    i.RTC_IRQHandler                         0x080008d4   Section        0  rtc.o(i.RTC_IRQHandler)
    i.STM32_SetPriority                      0x0800095c   Section        0  sys.o(i.STM32_SetPriority)
    i.SetSysClock                            0x08000a34   Section        0  system_stm32f10x.o(i.SetSysClock)
    SetSysClock                              0x08000a35   Thumb Code     8  system_stm32f10x.o(i.SetSysClock)
    i.SetSysClockTo72                        0x08000a3c   Section        0  system_stm32f10x.o(i.SetSysClockTo72)
    SetSysClockTo72                          0x08000a3d   Thumb Code   214  system_stm32f10x.o(i.SetSysClockTo72)
    i.SysTick_Handler                        0x08000b1c   Section        0  sys.o(i.SysTick_Handler)
    i.SystemInit                             0x08000b4c   Section        0  system_stm32f10x.o(i.SystemInit)
    i.TIM1_Init                              0x08000bac   Section        0  timer.o(i.TIM1_Init)
    i.TIM1_UP_IRQHandler                     0x08000c70   Section        0  timer.o(i.TIM1_UP_IRQHandler)
    i.TIM2_IRQHandler                        0x08000d70   Section        0  timer.o(i.TIM2_IRQHandler)
    i.TIM2_Init                              0x08000e14   Section        0  timer.o(i.TIM2_Init)
    i.TIM3_IRQHandler                        0x08000e70   Section        0  timer.o(i.TIM3_IRQHandler)
    i.TIM3_Init                              0x08000f14   Section        0  timer.o(i.TIM3_Init)
    i.TIM4_IRQHandler                        0x08000f80   Section        0  timer.o(i.TIM4_IRQHandler)
    i.TIM_ClearFlag                          0x08000fb0   Section        0  stm32f10x_tim.o(i.TIM_ClearFlag)
    i.TIM_ClearITPendingBit                  0x08000fb6   Section        0  stm32f10x_tim.o(i.TIM_ClearITPendingBit)
    i.USART1_IRQHandler                      0x08000fbc   Section        0  usart.o(i.USART1_IRQHandler)
    i.USART1_Init                            0x08001024   Section        0  usart.o(i.USART1_Init)
    i.USART2_IRQHandler                      0x080010c0   Section        0  usart.o(i.USART2_IRQHandler)
    i.USART3_IRQHandler                      0x08001120   Section        0  usart.o(i.USART3_IRQHandler)
    i.WWDG_IRQHandler                        0x08001188   Section        0  wdg.o(i.WWDG_IRQHandler)
    i.__0printf$3                            0x080011a8   Section        0  printf3.o(i.__0printf$3)
    i.__scatterload_copy                     0x080011c8   Section       14  handlers.o(i.__scatterload_copy)
    i.__scatterload_null                     0x080011d6   Section        2  handlers.o(i.__scatterload_null)
    i.__scatterload_zeroinit                 0x080011d8   Section       14  handlers.o(i.__scatterload_zeroinit)
    i._irol_                                 0x080011e6   Section        0  bit_while.o(i._irol_)
    i._printf_core                           0x08001214   Section        0  printf3.o(i._printf_core)
    _printf_core                             0x08001215   Thumb Code   436  printf3.o(i._printf_core)
    i.delay_ms                               0x080013cc   Section        0  delay.o(i.delay_ms)
    i.fputc                                  0x080013f0   Section        0  usart.o(i.fputc)
    i.hc595_init                             0x0800140c   Section        0  74hc595.o(i.hc595_init)
    i.main                                   0x080014a4   Section        0  main.o(i.main)
    .constdata                               0x08001608   Section     3543  hanzi.o(.constdata)
    .data                                    0x20000000   Section        7  usart.o(.data)
    .data                                    0x20000007   Section        6  exti.o(.data)
    exti_flag                                0x2000000c   Data           1  exti.o(.data)
    .data                                    0x20000010   Section       12  timer.o(.data)
    i                                        0x20000014   Data           1  timer.o(.data)
    kkk                                      0x20000016   Data           2  timer.o(.data)
    j                                        0x20000018   Data           1  timer.o(.data)
    mmm                                      0x2000001a   Data           2  timer.o(.data)
    .data                                    0x2000001c   Section       24  rtc.o(.data)
    .data                                    0x20000034   Section        2  wdg.o(.data)
    .data                                    0x20000036   Section        4  74hc595.o(.data)
    .data                                    0x2000003c   Section        4  stdout.o(.data)
    .bss                                     0x20000040   Section     1424  usart.o(.bss)
    .bss                                     0x200005d0   Section       68  timer.o(.bss)
    .bss                                     0x20000614   Section       24  rtc.o(.bss)
    .bss                                     0x2000062c   Section     1280  hanzi.o(.bss)
    STACK                                    0x20000b30   Section     1024  startup_stm32f10x_hd.o(STACK)

    Global Symbols

    Symbol Name                              Value     Ov Type        Size  Object(Section)

    BuildAttributes$$THM_ISAv4$P$D$K$B$S$PE$A:L22UL41UL21$X:L11$S22US41US21$IEEE1$IW$USESV6$~STKCKD$USESV7$~SHL$OSPACE$ROPI$EBA8$MICROLIB$REQ8$PRES8$EABIv2 0x00000000   Number         0  anon$$obj.o ABSOLUTE
    __ARM_use_no_argv                        0x00000000   Number         0  main.o ABSOLUTE
    _printf_a                                0x00000000   Number         0  stubs.o ABSOLUTE
    _printf_c                                0x00000000   Number         0  stubs.o ABSOLUTE
    _printf_charcount                        0x00000000   Number         0  stubs.o ABSOLUTE
    _printf_d                                0x00000000   Number         0  stubs.o ABSOLUTE
    _printf_e                                0x00000000   Number         0  stubs.o ABSOLUTE
    _printf_f                                0x00000000   Number         0  stubs.o ABSOLUTE
    _printf_flags                            0x00000000   Number         0  stubs.o ABSOLUTE
    _printf_fp_dec                           0x00000000   Number         0  stubs.o ABSOLUTE
    _printf_fp_hex                           0x00000000   Number         0  stubs.o ABSOLUTE
    _printf_g                                0x00000000   Number         0  stubs.o ABSOLUTE
    _printf_i                                0x00000000   Number         0  stubs.o ABSOLUTE
    _printf_int_dec                          0x00000000   Number         0  stubs.o ABSOLUTE
    _printf_l                                0x00000000   Number         0  stubs.o ABSOLUTE
    _printf_lc                               0x00000000   Number         0  stubs.o ABSOLUTE
    _printf_ll                               0x00000000   Number         0  stubs.o ABSOLUTE
    _printf_lld                              0x00000000   Number         0  stubs.o ABSOLUTE
    _printf_lli                              0x00000000   Number         0  stubs.o ABSOLUTE
    _printf_llo                              0x00000000   Number         0  stubs.o ABSOLUTE
    _printf_llu                              0x00000000   Number         0  stubs.o ABSOLUTE
    _printf_llx                              0x00000000   Number         0  stubs.o ABSOLUTE
    _printf_longlong_dec                     0x00000000   Number         0  stubs.o ABSOLUTE
    _printf_longlong_hex                     0x00000000   Number         0  stubs.o ABSOLUTE
    _printf_longlong_oct                     0x00000000   Number         0  stubs.o ABSOLUTE
    _printf_ls                               0x00000000   Number         0  stubs.o ABSOLUTE
    _printf_mbtowc                           0x00000000   Number         0  stubs.o ABSOLUTE
    _printf_n                                0x00000000   Number         0  stubs.o ABSOLUTE
    _printf_o                                0x00000000   Number         0  stubs.o ABSOLUTE
    _printf_p                                0x00000000   Number         0  stubs.o ABSOLUTE
    _printf_percent                          0x00000000   Number         0  stubs.o ABSOLUTE
    _printf_pre_padding                      0x00000000   Number         0  stubs.o ABSOLUTE
    _printf_return_value                     0x00000000   Number         0  stubs.o ABSOLUTE
    _printf_s                                0x00000000   Number         0  stubs.o ABSOLUTE
    _printf_sizespec                         0x00000000   Number         0  stubs.o ABSOLUTE
    _printf_str                              0x00000000   Number         0  stubs.o ABSOLUTE
    _printf_truncate_signed                  0x00000000   Number         0  stubs.o ABSOLUTE
    _printf_truncate_unsigned                0x00000000   Number         0  stubs.o ABSOLUTE
    _printf_u                                0x00000000   Number         0  stubs.o ABSOLUTE
    _printf_wc                               0x00000000   Number         0  stubs.o ABSOLUTE
    _printf_wctomb                           0x00000000   Number         0  stubs.o ABSOLUTE
    _printf_widthprec                        0x00000000   Number         0  stubs.o ABSOLUTE
    _printf_x                                0x00000000   Number         0  stubs.o ABSOLUTE
    __cpp_initialize__aeabi_                  - Undefined Weak Reference
    __cxa_finalize                            - Undefined Weak Reference
    __decompress                              - Undefined Weak Reference
    _clock_init                               - Undefined Weak Reference
    _microlib_exit                            - Undefined Weak Reference
    __Vectors_Size                           0x00000130   Number         0  startup_stm32f10x_hd.o ABSOLUTE
    __Vectors                                0x08000000   Data           4  startup_stm32f10x_hd.o(RESET)
    __Vectors_End                            0x08000130   Data           0  startup_stm32f10x_hd.o(RESET)
    __main                                   0x08000131   Thumb Code     0  entry.o(.ARM.Collect$$$$00000000)
    _main_stk                                0x08000131   Thumb Code     0  entry2.o(.ARM.Collect$$$$00000001)
    _main_scatterload                        0x08000135   Thumb Code     0  entry5.o(.ARM.Collect$$$$00000004)
    __main_after_scatterload                 0x08000139   Thumb Code     0  entry5.o(.ARM.Collect$$$$00000004)
    _main_clock                              0x08000139   Thumb Code     0  entry7b.o(.ARM.Collect$$$$00000008)
    _main_cpp_init                           0x08000139   Thumb Code     0  entry8b.o(.ARM.Collect$$$$0000000A)
    _main_init                               0x08000139   Thumb Code     0  entry9a.o(.ARM.Collect$$$$0000000B)
    __rt_final_cpp                           0x08000141   Thumb Code     0  entry10a.o(.ARM.Collect$$$$0000000D)
    __rt_final_exit                          0x08000141   Thumb Code     0  entry11a.o(.ARM.Collect$$$$0000000F)
    Reset_Handler                            0x08000145   Thumb Code     8  startup_stm32f10x_hd.o(.text)
    NMI_Handler                              0x0800014d   Thumb Code     2  startup_stm32f10x_hd.o(.text)
    HardFault_Handler                        0x0800014f   Thumb Code     2  startup_stm32f10x_hd.o(.text)
    MemManage_Handler                        0x08000151   Thumb Code     2  startup_stm32f10x_hd.o(.text)
    BusFault_Handler                         0x08000153   Thumb Code     2  startup_stm32f10x_hd.o(.text)
    UsageFault_Handler                       0x08000155   Thumb Code     2  startup_stm32f10x_hd.o(.text)
    SVC_Handler                              0x08000157   Thumb Code     2  startup_stm32f10x_hd.o(.text)
    DebugMon_Handler                         0x08000159   Thumb Code     2  startup_stm32f10x_hd.o(.text)
    PendSV_Handler                           0x0800015b   Thumb Code     2  startup_stm32f10x_hd.o(.text)
    ADC1_2_IRQHandler                        0x0800015f   Thumb Code     0  startup_stm32f10x_hd.o(.text)
    ADC3_IRQHandler                          0x0800015f   Thumb Code     0  startup_stm32f10x_hd.o(.text)
    CAN1_RX1_IRQHandler                      0x0800015f   Thumb Code     0  startup_stm32f10x_hd.o(.text)
    CAN1_SCE_IRQHandler                      0x0800015f   Thumb Code     0  startup_stm32f10x_hd.o(.text)
    DMA1_Channel1_IRQHandler                 0x0800015f   Thumb Code     0  startup_stm32f10x_hd.o(.text)
    DMA1_Channel2_IRQHandler                 0x0800015f   Thumb Code     0  startup_stm32f10x_hd.o(.text)
    DMA1_Channel3_IRQHandler                 0x0800015f   Thumb Code     0  startup_stm32f10x_hd.o(.text)
    DMA1_Channel4_IRQHandler                 0x0800015f   Thumb Code     0  startup_stm32f10x_hd.o(.text)
    DMA1_Channel5_IRQHandler                 0x0800015f   Thumb Code     0  startup_stm32f10x_hd.o(.text)
    DMA1_Channel6_IRQHandler                 0x0800015f   Thumb Code     0  startup_stm32f10x_hd.o(.text)
    DMA1_Channel7_IRQHandler                 0x0800015f   Thumb Code     0  startup_stm32f10x_hd.o(.text)
    DMA2_Channel1_IRQHandler                 0x0800015f   Thumb Code     0  startup_stm32f10x_hd.o(.text)
    DMA2_Channel2_IRQHandler                 0x0800015f   Thumb Code     0  startup_stm32f10x_hd.o(.text)
    DMA2_Channel3_IRQHandler                 0x0800015f   Thumb Code     0  startup_stm32f10x_hd.o(.text)
    DMA2_Channel4_5_IRQHandler               0x0800015f   Thumb Code     0  startup_stm32f10x_hd.o(.text)
    EXTI15_10_IRQHandler                     0x0800015f   Thumb Code     0  startup_stm32f10x_hd.o(.text)
    EXTI1_IRQHandler                         0x0800015f   Thumb Code     0  startup_stm32f10x_hd.o(.text)
    EXTI2_IRQHandler                         0x0800015f   Thumb Code     0  startup_stm32f10x_hd.o(.text)
    EXTI3_IRQHandler                         0x0800015f   Thumb Code     0  startup_stm32f10x_hd.o(.text)
    EXTI4_IRQHandler                         0x0800015f   Thumb Code     0  startup_stm32f10x_hd.o(.text)
    EXTI9_5_IRQHandler                       0x0800015f   Thumb Code     0  startup_stm32f10x_hd.o(.text)
    FLASH_IRQHandler                         0x0800015f   Thumb Code     0  startup_stm32f10x_hd.o(.text)
    FSMC_IRQHandler                          0x0800015f   Thumb Code     0  startup_stm32f10x_hd.o(.text)
    I2C1_ER_IRQHandler                       0x0800015f   Thumb Code     0  startup_stm32f10x_hd.o(.text)
    I2C1_EV_IRQHandler                       0x0800015f   Thumb Code     0  startup_stm32f10x_hd.o(.text)
    I2C2_ER_IRQHandler                       0x0800015f   Thumb Code     0  startup_stm32f10x_hd.o(.text)
    I2C2_EV_IRQHandler                       0x0800015f   Thumb Code     0  startup_stm32f10x_hd.o(.text)
    PVD_IRQHandler                           0x0800015f   Thumb Code     0  startup_stm32f10x_hd.o(.text)
    RCC_IRQHandler                           0x0800015f   Thumb Code     0  startup_stm32f10x_hd.o(.text)
    RTCAlarm_IRQHandler                      0x0800015f   Thumb Code     0  startup_stm32f10x_hd.o(.text)
    SDIO_IRQHandler                          0x0800015f   Thumb Code     0  startup_stm32f10x_hd.o(.text)
    SPI1_IRQHandler                          0x0800015f   Thumb Code     0  startup_stm32f10x_hd.o(.text)
    SPI2_IRQHandler                          0x0800015f   Thumb Code     0  startup_stm32f10x_hd.o(.text)
    SPI3_IRQHandler                          0x0800015f   Thumb Code     0  startup_stm32f10x_hd.o(.text)
    TAMPER_IRQHandler                        0x0800015f   Thumb Code     0  startup_stm32f10x_hd.o(.text)
    TIM1_BRK_IRQHandler                      0x0800015f   Thumb Code     0  startup_stm32f10x_hd.o(.text)
    TIM1_CC_IRQHandler                       0x0800015f   Thumb Code     0  startup_stm32f10x_hd.o(.text)
    TIM1_TRG_COM_IRQHandler                  0x0800015f   Thumb Code     0  startup_stm32f10x_hd.o(.text)
    TIM5_IRQHandler                          0x0800015f   Thumb Code     0  startup_stm32f10x_hd.o(.text)
    TIM6_IRQHandler                          0x0800015f   Thumb Code     0  startup_stm32f10x_hd.o(.text)
    TIM7_IRQHandler                          0x0800015f   Thumb Code     0  startup_stm32f10x_hd.o(.text)
    TIM8_BRK_IRQHandler                      0x0800015f   Thumb Code     0  startup_stm32f10x_hd.o(.text)
    TIM8_CC_IRQHandler                       0x0800015f   Thumb Code     0  startup_stm32f10x_hd.o(.text)
    TIM8_TRG_COM_IRQHandler                  0x0800015f   Thumb Code     0  startup_stm32f10x_hd.o(.text)
    TIM8_UP_IRQHandler                       0x0800015f   Thumb Code     0  startup_stm32f10x_hd.o(.text)
    UART4_IRQHandler                         0x0800015f   Thumb Code     0  startup_stm32f10x_hd.o(.text)
    UART5_IRQHandler                         0x0800015f   Thumb Code     0  startup_stm32f10x_hd.o(.text)
    USBWakeUp_IRQHandler                     0x0800015f   Thumb Code     0  startup_stm32f10x_hd.o(.text)
    USB_HP_CAN1_TX_IRQHandler                0x0800015f   Thumb Code     0  startup_stm32f10x_hd.o(.text)
    USB_LP_CAN1_RX0_IRQHandler               0x0800015f   Thumb Code     0  startup_stm32f10x_hd.o(.text)
    __aeabi_memcpy                           0x08000169   Thumb Code    36  memcpya.o(.text)
    __aeabi_memcpy4                          0x08000169   Thumb Code     0  memcpya.o(.text)
    __aeabi_memcpy8                          0x08000169   Thumb Code     0  memcpya.o(.text)
    __aeabi_memset                           0x0800018d   Thumb Code    14  memseta.o(.text)
    __aeabi_memset4                          0x0800018d   Thumb Code     0  memseta.o(.text)
    __aeabi_memset8                          0x0800018d   Thumb Code     0  memseta.o(.text)
    __aeabi_memclr                           0x0800019b   Thumb Code     4  memseta.o(.text)
    __aeabi_memclr4                          0x0800019b   Thumb Code     0  memseta.o(.text)
    __aeabi_memclr8                          0x0800019b   Thumb Code     0  memseta.o(.text)
    _memset$wrapper                          0x0800019f   Thumb Code    18  memseta.o(.text)
    __aeabi_uidiv                            0x080001b1   Thumb Code     0  uidiv.o(.text)
    __aeabi_uidivmod                         0x080001b1   Thumb Code    44  uidiv.o(.text)
    __scatterload                            0x080001dd   Thumb Code    28  init.o(.text)
    __scatterload_rt2                        0x080001dd   Thumb Code     0  init.o(.text)
    EXTI0_IRQHandler                         0x08000201   Thumb Code   252  exti.o(i.EXTI0_IRQHandler)
    EXTI_KEY_Init                            0x0800033d   Thumb Code   192  exti.o(i.EXTI_KEY_Init)
    GET_RTC_TIME                             0x08000409   Thumb Code   328  rtc.o(i.GET_RTC_TIME)
    GET_TIME_STATE                           0x08000569   Thumb Code    42  rtc.o(i.GET_TIME_STATE)
    HC595_Write_1                            0x08000595   Thumb Code   282  74hc595.o(i.HC595_Write_1)
    HC595_Write_2                            0x080006c1   Thumb Code   282  74hc595.o(i.HC595_Write_2)
    KEY_Init                                 0x080007ed   Thumb Code   108  key.o(i.KEY_Init)
    LED_Init                                 0x08000865   Thumb Code   100  led.o(i.LED_Init)
    RTC_IRQHandler                           0x080008d5   Thumb Code    94  rtc.o(i.RTC_IRQHandler)
    STM32_SetPriority                        0x0800095d   Thumb Code   202  sys.o(i.STM32_SetPriority)
    SysTick_Handler                          0x08000b1d   Thumb Code    36  sys.o(i.SysTick_Handler)
    SystemInit                               0x08000b4d   Thumb Code    78  system_stm32f10x.o(i.SystemInit)
    TIM1_Init                                0x08000bad   Thumb Code   188  timer.o(i.TIM1_Init)
    TIM1_UP_IRQHandler                       0x08000c71   Thumb Code   200  timer.o(i.TIM1_UP_IRQHandler)
    TIM2_IRQHandler                          0x08000d71   Thumb Code   144  timer.o(i.TIM2_IRQHandler)
    TIM2_Init                                0x08000e15   Thumb Code    88  timer.o(i.TIM2_Init)
    TIM3_IRQHandler                          0x08000e71   Thumb Code   140  timer.o(i.TIM3_IRQHandler)
    TIM3_Init                                0x08000f15   Thumb Code    98  timer.o(i.TIM3_Init)
    TIM4_IRQHandler                          0x08000f81   Thumb Code    40  timer.o(i.TIM4_IRQHandler)
    TIM_ClearFlag                            0x08000fb1   Thumb Code     6  stm32f10x_tim.o(i.TIM_ClearFlag)
    TIM_ClearITPendingBit                    0x08000fb7   Thumb Code     6  stm32f10x_tim.o(i.TIM_ClearITPendingBit)
    USART1_IRQHandler                        0x08000fbd   Thumb Code    82  usart.o(i.USART1_IRQHandler)
    USART1_Init                              0x08001025   Thumb Code   140  usart.o(i.USART1_Init)
    USART2_IRQHandler                        0x080010c1   Thumb Code    78  usart.o(i.USART2_IRQHandler)
    USART3_IRQHandler                        0x08001121   Thumb Code    84  usart.o(i.USART3_IRQHandler)
    WWDG_IRQHandler                          0x08001189   Thumb Code    24  wdg.o(i.WWDG_IRQHandler)
    __0printf$3                              0x080011a9   Thumb Code    22  printf3.o(i.__0printf$3)
    __1printf$3                              0x080011a9   Thumb Code     0  printf3.o(i.__0printf$3)
    __2printf                                0x080011a9   Thumb Code     0  printf3.o(i.__0printf$3)
    __scatterload_copy                       0x080011c9   Thumb Code    14  handlers.o(i.__scatterload_copy)
    __scatterload_null                       0x080011d7   Thumb Code     2  handlers.o(i.__scatterload_null)
    __scatterload_zeroinit                   0x080011d9   Thumb Code    14  handlers.o(i.__scatterload_zeroinit)
    _irol_                                   0x080011e7   Thumb Code    44  bit_while.o(i._irol_)
    delay_ms                                 0x080013cd   Thumb Code    34  delay.o(i.delay_ms)
    fputc                                    0x080013f1   Thumb Code    22  usart.o(i.fputc)
    hc595_init                               0x0800140d   Thumb Code   106  74hc595.o(i.hc595_init)
    main                                     0x080014a5   Thumb Code   322  main.o(i.main)
    OnFoot_2_1                               0x08001608   Data          87  hanzi.o(.constdata)
    OnFoot_2_2                               0x0800165f   Data          96  hanzi.o(.constdata)
    hanzi_1                                  0x080016bf   Data        1120  hanzi.o(.constdata)
    hanzi_2                                  0x08001b1f   Data        1120  hanzi.o(.constdata)
    hanzi_3                                  0x08001f7f   Data        1120  hanzi.o(.constdata)
    Region$$Table$$Base                      0x080023e0   Number         0  anon$$obj.o(Region$$Table)
    Region$$Table$$Limit                     0x08002400   Number         0  anon$$obj.o(Region$$Table)
    USART1_RX_CNT                            0x20000000   Data           1  usart.o(.data)
    USART1_RX_FLAG                           0x20000001   Data           1  usart.o(.data)
    USART2_RX_CNT                            0x20000002   Data           1  usart.o(.data)
    USART2_RX_FLAG                           0x20000003   Data           1  usart.o(.data)
    USART3_RX_CNT                            0x20000004   Data           2  usart.o(.data)
    USART3_RX_FLAG                           0x20000006   Data           1  usart.o(.data)
    k                                        0x20000007   Data           1  exti.o(.data)
    a                                        0x20000008   Data           1  exti.o(.data)
    num                                      0x20000009   Data           1  exti.o(.data)
    ww                                       0x2000000a   Data           1  exti.o(.data)
    mm                                       0x2000000b   Data           1  exti.o(.data)
    key_time                                 0x20000010   Data           4  timer.o(.data)
    mon_r                                    0x2000001c   Data          12  rtc.o(.data)
    mon_p                                    0x20000028   Data          12  rtc.o(.data)
    wwdg_arr                                 0x20000034   Data           2  wdg.o(.data)
    Mould                                    0x20000036   Data           2  74hc595.o(.data)
    upright                                  0x20000038   Data           2  74hc595.o(.data)
    __stdout                                 0x2000003c   Data           4  stdout.o(.data)
    USART1_RX_BUFF                           0x20000040   Data         200  usart.o(.bss)
    USART2_RX_BUFF                           0x20000108   Data         200  usart.o(.bss)
    USART3_RX_BUFF                           0x200001d0   Data        1024  usart.o(.bss)
    LED2X64                                  0x200005d0   Data          34  timer.o(.bss)
    xianshi                                  0x200005f2   Data          34  timer.o(.bss)
    rtc_time                                 0x20000614   Data          24  rtc.o(.bss)
    hanzi                                    0x2000062c   Data        1280  hanzi.o(.bss)
    __initial_sp                             0x20000f30   Data           0  startup_stm32f10x_hd.o(STACK)



==============================================================================

Memory Map of the image

  Image Entry point : 0x08000131

  Load Region LR_IROM1 (Base: 0x08000000, Size: 0x00002440, Max: 0x00040000, ABSOLUTE)

    Execution Region ER_IROM1 (Base: 0x08000000, Size: 0x00002400, Max: 0x00040000, ABSOLUTE)

    Base Addr    Size         Type   Attr      Idx    E Section Name        Object

    0x08000000   0x00000130   Data   RO           69    RESET               startup_stm32f10x_hd.o
    0x08000130   0x00000000   Code   RO         3855  * .ARM.Collect$$$$00000000  mc_w.l(entry.o)
    0x08000130   0x00000004   Code   RO         4133    .ARM.Collect$$$$00000001  mc_w.l(entry2.o)
    0x08000134   0x00000004   Code   RO         4136    .ARM.Collect$$$$00000004  mc_w.l(entry5.o)
    0x08000138   0x00000000   Code   RO         4138    .ARM.Collect$$$$00000008  mc_w.l(entry7b.o)
    0x08000138   0x00000000   Code   RO         4140    .ARM.Collect$$$$0000000A  mc_w.l(entry8b.o)
    0x08000138   0x00000008   Code   RO         4141    .ARM.Collect$$$$0000000B  mc_w.l(entry9a.o)
    0x08000140   0x00000000   Code   RO         4143    .ARM.Collect$$$$0000000D  mc_w.l(entry10a.o)
    0x08000140   0x00000000   Code   RO         4145    .ARM.Collect$$$$0000000F  mc_w.l(entry11a.o)
    0x08000140   0x00000004   Code   RO         4134    .ARM.Collect$$$$00002712  mc_w.l(entry2.o)
    0x08000144   0x00000024   Code   RO           70    .text               startup_stm32f10x_hd.o
    0x08000168   0x00000024   Code   RO         3858    .text               mc_w.l(memcpya.o)
    0x0800018c   0x00000024   Code   RO         3860    .text               mc_w.l(memseta.o)
    0x080001b0   0x0000002c   Code   RO         4148    .text               mc_w.l(uidiv.o)
    0x080001dc   0x00000024   Code   RO         4163    .text               mc_w.l(init.o)
    0x08000200   0x0000013c   Code   RO          272    i.EXTI0_IRQHandler  exti.o
    0x0800033c   0x000000cc   Code   RO          273    i.EXTI_KEY_Init     exti.o
    0x08000408   0x00000160   Code   RO          391    i.GET_RTC_TIME      rtc.o
    0x08000568   0x0000002a   Code   RO          392    i.GET_TIME_STATE    rtc.o
    0x08000592   0x00000002   PAD
    0x08000594   0x0000012c   Code   RO          719    i.HC595_Write_1     74hc595.o
    0x080006c0   0x0000012c   Code   RO          720    i.HC595_Write_2     74hc595.o
    0x080007ec   0x00000078   Code   RO          144    i.KEY_Init          key.o
    0x08000864   0x00000070   Code   RO          132    i.LED_Init          led.o
    0x080008d4   0x00000088   Code   RO          393    i.RTC_IRQHandler    rtc.o
    0x0800095c   0x000000d8   Code   RO          169    i.STM32_SetPriority  sys.o
    0x08000a34   0x00000008   Code   RO           17    i.SetSysClock       system_stm32f10x.o
    0x08000a3c   0x000000e0   Code   RO           18    i.SetSysClockTo72   system_stm32f10x.o
    0x08000b1c   0x00000030   Code   RO          171    i.SysTick_Handler   sys.o
    0x08000b4c   0x00000060   Code   RO           20    i.SystemInit        system_stm32f10x.o
    0x08000bac   0x000000c4   Code   RO          316    i.TIM1_Init         timer.o
    0x08000c70   0x00000100   Code   RO          317    i.TIM1_UP_IRQHandler  timer.o
    0x08000d70   0x000000a4   Code   RO          318    i.TIM2_IRQHandler   timer.o
    0x08000e14   0x0000005c   Code   RO          319    i.TIM2_Init         timer.o
    0x08000e70   0x000000a4   Code   RO          320    i.TIM3_IRQHandler   timer.o
    0x08000f14   0x0000006c   Code   RO          321    i.TIM3_Init         timer.o
    0x08000f80   0x00000030   Code   RO          322    i.TIM4_IRQHandler   timer.o
    0x08000fb0   0x00000006   Code   RO         3077    i.TIM_ClearFlag     stm32f10x_tim.o
    0x08000fb6   0x00000006   Code   RO         3078    i.TIM_ClearITPendingBit  stm32f10x_tim.o
    0x08000fbc   0x00000068   Code   RO          197    i.USART1_IRQHandler  usart.o
    0x08001024   0x0000009c   Code   RO          198    i.USART1_Init       usart.o
    0x080010c0   0x00000060   Code   RO          200    i.USART2_IRQHandler  usart.o
    0x08001120   0x00000068   Code   RO          201    i.USART3_IRQHandler  usart.o
    0x08001188   0x00000020   Code   RO          621    i.WWDG_IRQHandler   wdg.o
    0x080011a8   0x00000020   Code   RO         3961    i.__0printf$3       mc_w.l(printf3.o)
    0x080011c8   0x0000000e   Code   RO         4175    i.__scatterload_copy  mc_w.l(handlers.o)
    0x080011d6   0x00000002   Code   RO         4176    i.__scatterload_null  mc_w.l(handlers.o)
    0x080011d8   0x0000000e   Code   RO         4177    i.__scatterload_zeroinit  mc_w.l(handlers.o)
    0x080011e6   0x0000002c   Code   RO          763    i._irol_            bit_while.o
    0x08001212   0x00000002   PAD
    0x08001214   0x000001b8   Code   RO         3968    i._printf_core      mc_w.l(printf3.o)
    0x080013cc   0x00000022   Code   RO          101    i.delay_ms          delay.o
    0x080013ee   0x00000002   PAD
    0x080013f0   0x0000001c   Code   RO          205    i.fputc             usart.o
    0x0800140c   0x00000098   Code   RO          721    i.hc595_init        74hc595.o
    0x080014a4   0x00000164   Code   RO          804    i.main              main.o
    0x08001608   0x00000dd7   Data   RO          792    .constdata          hanzi.o
    0x080023df   0x00000001   PAD
    0x080023e0   0x00000020   Data   RO         4173    Region$$Table       anon$$obj.o


    Execution Region RW_IRAM1 (Base: 0x20000000, Size: 0x00000f30, Max: 0x0000c000, ABSOLUTE)

    Base Addr    Size         Type   Attr      Idx    E Section Name        Object

    0x20000000   0x00000007   Data   RW          207    .data               usart.o
    0x20000007   0x00000006   Data   RW          274    .data               exti.o
    0x2000000d   0x00000003   PAD
    0x20000010   0x0000000c   Data   RW          326    .data               timer.o
    0x2000001c   0x00000018   Data   RW          397    .data               rtc.o
    0x20000034   0x00000002   Data   RW          623    .data               wdg.o
    0x20000036   0x00000004   Data   RW          724    .data               74hc595.o
    0x2000003a   0x00000002   PAD
    0x2000003c   0x00000004   Data   RW         4147    .data               mc_w.l(stdout.o)
    0x20000040   0x00000590   Zero   RW          206    .bss                usart.o
    0x200005d0   0x00000044   Zero   RW          325    .bss                timer.o
    0x20000614   0x00000018   Zero   RW          396    .bss                rtc.o
    0x2000062c   0x00000500   Zero   RW          791    .bss                hanzi.o
    0x20000b2c   0x00000004   PAD
    0x20000b30   0x00000400   Zero   RW           67    STACK               startup_stm32f10x_hd.o


==============================================================================

Image component sizes


      Code (inc. data)   RO Data    RW Data    ZI Data      Debug   Object Name

       752         82          0          4          0       2389   74hc595.o
        44          0          0          0          0        537   bit_while.o
         0          0          0          0          0       4528   core_cm3.o
        34          0          0          0          0        515   delay.o
       520         76          0          6          0       1347   exti.o
         0          0       3543          0       1280        686   hanzi.o
       120         12          0          0          0        411   key.o
       112         12          0          0          0        403   led.o
       356         34          0          0          0        555   main.o
       530         66          0         24         24       2580   rtc.o
        36          8        304          0       1024        756   startup_stm32f10x_hd.o
        12          0          0          0          0       1420   stm32f10x_tim.o
       264         26          0          0          0      16613   sys.o
       328         28          0          0          0     225065   system_stm32f10x.o
      1028        130          0         12         68       4406   timer.o
       488         82          0          7       1424       4516   usart.o
        32          8          0          2          0        581   wdg.o

    ----------------------------------------------------------------------
      4662        564       3880         60       3824     267308   Object Totals
         0          0         32          0          0          0   (incl. Generated)
         6          0          1          5          4          0   (incl. Padding)

    ----------------------------------------------------------------------

      Code (inc. data)   RO Data    RW Data    ZI Data      Debug   Library Member Name

         0          0          0          0          0          0   entry.o
         0          0          0          0          0          0   entry10a.o
         0          0          0          0          0          0   entry11a.o
         8          4          0          0          0          0   entry2.o
         4          0          0          0          0          0   entry5.o
         0          0          0          0          0          0   entry7b.o
         0          0          0          0          0          0   entry8b.o
         8          4          0          0          0          0   entry9a.o
        30          0          0          0          0          0   handlers.o
        36          8          0          0          0         68   init.o
        36          0          0          0          0         68   memcpya.o
        36          0          0          0          0        108   memseta.o
       472         14          0          0          0        184   printf3.o
         0          0          0          4          0          0   stdout.o
        44          0          0          0          0         80   uidiv.o

    ----------------------------------------------------------------------
       674         30          0          4          0        508   Library Totals
         0          0          0          0          0          0   (incl. Padding)

    ----------------------------------------------------------------------

      Code (inc. data)   RO Data    RW Data    ZI Data      Debug   Library Name

       674         30          0          4          0        508   mc_w.l

    ----------------------------------------------------------------------
       674         30          0          4          0        508   Library Totals

    ----------------------------------------------------------------------

==============================================================================


      Code (inc. data)   RO Data    RW Data    ZI Data      Debug   

      5336        594       3880         64       3824     266200   Grand Totals
      5336        594       3880         64       3824     266200   ELF Image Totals
      5336        594       3880         64          0          0   ROM Totals

==============================================================================

    Total RO  Size (Code + RO Data)                 9216 (   9.00kB)
    Total RW  Size (RW Data + ZI Data)              3888 (   3.80kB)
    Total ROM Size (Code + RO Data + RW Data)       9280 (   9.06kB)

==============================================================================

